:100000000C943F0C0C94700C0C94700C0C94700CB1
:100010000C94700C0C94700C0C94700C0C94700C70
:100020000C94700C0C94700C0C94700C0C94700C60
:100030000C94700C0C94700C0C94700C0C94700C50
:100040000C94700C0C946B500C94700C0C94700C01
:100050000C94700C0C94700C0C94C8370C94F461D4
:100060000C94700C0C94BA360C94B0360C94700C42
:100070000C94700C0C94700C0C94700C0C94700C10
:100080000C94700C0C94700C0C94700C0C94700C00
:100090000C94700C0C94700C0C94700C0C94700CF0
:1000A0000C94700C0C94700C0C94700C0C94700CE0
:1000B0000C94700C0C94700C0C94700C0C94700CD0
:1000C0000C94700C0C94700C0C94700C0C94700CC0
:1000D0000C94700C0C94700C0C94700C0C94700CB0
:1000E0000C94700C523457345C3466347034E934F8
:1000F0007A3482348A3494349E34A834B734C13488
:10010000E934CB34D534DF3469626C625B625F62A0
:100110006362A362706274627A627E6282628862E3
:100120008C629062A36296629A629E62084AD73B92
:100130003BCE016E84BCBFFDC12F3D6C74319ABDB6
:1001400056833DDA3D00C77F11BED9E4BB4C3E91DA
:100150006BAAAABE000000803F05A84CCDB2D44EC9
:10016000B93836A9020C50B9918688083CA6AAAACB
:100170002ABE000000803F000C949A620C94DF3489
:100180000C94CB340C946C620C94B7340C94823481
:100190000C9490620C945C340C949E620C942167D5
:1001A0000C945B620C9470620C947E620C946634C6
:1001B0000C9496620C9463620C94E9340C948862FB
:1001C0000C9452340C9457340C9469620C94A362CE
:1001D0000C948A340C949E340C947A620C9474625D
:1001E0000C9470340C945F620C94C1340C94D5342C
:1001F0000C94A8340C9482620C947A340C948C6223
:100200000C9494344E414E494E495459494E46CD72
:10021000CCCC3D0AD7233C17B7D13877CC2B3295BD
:1002200095E6241FB14F0A000020410000C842009B
:10023000401C4620BCBE4CCA1B0E5AAEC59D746203
:10024000656400434F4D4D554E49434154494F4E0F
:100250000044525952554E004552524F5253004994
:100260004E464F004543484F006F6B004545505286
:100270004F4D2064697361626C65640A00486F6D5C
:1002800065202573257325732046697273740054A5
:100290006F6F206661722066726F6D207265666591
:1002A00072656E636520706F696E740A0023646501
:1002B00066696E652044454641554C545F004B6469
:1002C00020004B6920004B702000504944204175AC
:1002D000746F74756E652066696E697368656421F4
:1002E0002050757420746865206C617374204B70A5
:1002F0002C204B6920616E64204B6420636F6E7309
:1003000074616E74732066726F6D2062656C6F77B6
:1003100020696E746F20436F6E66696775726174D1
:10032000696F6E2E680A00504944204175746F74DD
:10033000756E65206661696C6564212074696D6500
:100340006F75740A00544845524D414C2052554E29
:100350004157415900546865726D616C2052756E49
:10036000617761790048656174696E6720466169EB
:100370006C65640048656174696E67206661696CCC
:100380006564000A20436C617373696320504944BB
:10039000200A00204B643A2000204B693A200020BC
:1003A0004B703A20000A204E6F206F76657273689A
:1003B0006F6F740A002054753A2000204B753A2064
:1003C00000206D61783A2000206D696E3A2000208F
:1003D000643A200020626961733A20005049442049
:1003E0004175746F74756E652073746172740A0060
:1003F000504944204175746F74756E65206661695B
:100400006C6564212054656D7065726174757265E8
:1004100020746F6F20686967680A00504944204162
:1004200075746F74756E65206661696C65642120F2
:10043000426164206578747275646572206E756DB2
:100440006265720A006469730043290A0061626C84
:10045000656420286D696E2074656D702000436F9F
:100460006C642065787472756465732061726520B0
:100470000020643A0020693A0020703A00496E7604
:10048000616C69642065787472756465720A002015
:10049000466C6F773A200046523A00205A002059A5
:1004A0000020204D61783A200020204D696E3A20CE
:1004B00000536F667420656E6473746F70733A20B6
:1004C000003F4A206F7574206F662072616E676509
:1004D0002028302E303120746F20302E33290A002E
:1004E000205400205200416363656C657261746939
:1004F0006F6E3A2050002F2F20004348414D424557
:10050000525F54454D504552415455524500424169
:1005100042595354455050494E47004152435300AD
:100520004D4F54494F4E5F4D4F444553005448453D
:10053000524D414C5F50524F54454354494F4E0029
:100540004C4F4E475F46494C454E414D4500415545
:10055000544F5245504F52545F53445F535441548B
:100560005553005344434152440050524F4D505450
:100570005F535550504F525400454D455247454EDC
:1005800043595F50415253455200434153455F4CDC
:10059000494748545F4252494748544E45535300D7
:1005A000544F47474C455F4C494748545300534FBD
:1005B0004654574152455F504F57455200425549A6
:1005C0004C445F50455243454E54004C4556454CB3
:1005D000494E475F44415441005A5F50524F424593
:1005E0000052554E4F5554004155544F4C455645B9
:1005F0004C005052494E545F4A4F420050524F47B0
:1006000052455353004155544F5245504F52545F39
:1006100054454D5000564F4C554D4554524943009A
:10062000454550524F4D0042494E4152595F46494F
:100630004C455F5452414E53464552005345524932
:10064000414C5F584F4E5F584F4646004649524D09
:10065000574152455F4E414D453A4D61726C696E4E
:1006600020322E302E372E32202841707220323226
:1006700020323032312031393A35343A3339292079
:10068000534F555243455F434F44455F55524C3A93
:1006900068747470733A2F2F6769746875622E637B
:1006A0006F6D2F4D61726C696E4669726D77617204
:1006B000652F4D61726C696E2050524F544F434FFD
:1006C0004C5F56455253494F4E3A312E30204D41E2
:1006D0004348494E455F545950453A33442050727F
:1006E000696E7465722045585452554445525F43B3
:1006F0004F554E543A3120555549443A6365646527
:10070000326132662D343161322D343734382D392F
:100710006231322D6335356336326633363766667D
:100720000A004D3131332053004D313132205368AE
:100730007574646F776E006F666600444542554776
:100740003A0020573A0025697920256964202569F7
:10075000682025696D20256973005072696E7420C8
:1007600074696D653A200047322F47332062616417
:1007700020706172616D65746572730A0001FFFF1C
:1007800000007A43000000000000000064025F02E5
:100790005802510243020000484200004842000053
:1007A00080404572726F723A00204D3932205800F5
:1007B00020496E76616C6964206578747275646531
:1007C0007220004361703A00526573656E643A208E
:1007D000006F70656E0054524947474552454400CA
:1007E0007A5F6D696E00795F6D696E00785F6D612B
:1007F00078005265706F7274696E6720656E6473FD
:10080000746F70207374617475730A00486F6D693A
:100810006E67204661696C65640000002100240059
:1008200027002A002D0030003300010100000401E0
:1008300007010A012121204B494C4C20636175734B
:10084000656420627920746F6F206D75636820691C
:100850006E6163746976652074696D65202D20630F
:10086000757272656E7420636F6D6D616E643A208F
:10087000004D343130004D313132004D31303800CF
:100880005072696E7465722073746F707065642045
:1008900064756520746F206572726F72732E2046C6
:1008A000697820746865206572726F7220616E6469
:1008B00020757365204D39393920746F2072657346
:1008C000746172742E202854656D70657261747540
:1008D00072652069732072657365742E2053657488
:1008E0002069742061667465722072657374617228
:1008F00074696E67290A004E6F20436865636B73E5
:10090000756D2077697468206C696E65206E756DF1
:100910006265722C204C617374204C696E653A20BC
:1009200000636865636B73756D206D69736D6174C9
:1009300063682C204C617374204C696E653A20000A
:100940004C696E65204E756D626572206973206E0C
:100950006F74204C617374204C696E65204E756D08
:100960006265722B312C204C617374204C696E656A
:100970003A20004D31313000627573793A20706150
:100980007573656420666F7220696E7075740A00F5
:10099000627573793A2070617573656420666F7251
:1009A00020757365720A00627573793A2070726FF0
:1009B00063657373696E670A005072696E7465725D
:1009C0002068616C7465642E206B696C6C2829202A
:1009D00063616C6C6564210A006563686F3A00208E
:1009E000436F756E7420583A0042656400453100CB
:1009F0002C2073797374656D2073746F70706564E7
:100A000021204865617465725F49443A2000202DB9
:100A100020496E76616C69642065787472756465CE
:100A200072206E756D62657220210A004572723AFD
:100A3000204D415854454D50004D415854454D505E
:100A400020747269676765726564004572723A2046
:100A50004D494E54454D50004D494E54454D502042
:100A600074726967676572656400202F00204240D8
:100A70003A0020403A0020746F6F206C6F6E672040
:100A8000657874727573696F6E2070726576656EC5
:100A90007465640A0020636F6C64206578747275F5
:100AA00073696F6E2070726576656E7465640A0096
:100AB000DB0FC93F45BCDA3F8FB30240FCF0274053
:100AC00056946140FE4B9B4084A5D840E0231841DA
:100AD000346A5641E859974164DBD5416E27174285
:100AE000B4B75542CE1A9742C8AED542B5885A43DC
:100AF000D40684BFA65FA7BF7443E0BF10B11AC07D
:100B00001C2C58C0E8F697C0B849D6C04E4E17C145
:100B100024D355C1802497C1A0B5D5C1121A17C2DC
:100B200044AE55C2781797C26CACD5C267885AC319
:100B300020204D33303420500020490020204D33F8
:100B400030312050005049442073657474696E67D9
:100B5000733A0020204D323036205800486F6D65C2
:100B6000206F66667365743A00204A0020204D327B
:100B70003035204200416476616E6365643A2042FC
:100B80003C6D696E5F7365676D656E745F74696DEA
:100B9000655F75733E20533C6D696E5F6665656485
:100BA000726174653E20543C6D696E5F747261764B
:100BB000656C5F66656564726174653E204A3C6A77
:100BC000756E635F6465763E0020204D32303420C0
:100BD0005000416363656C65726174696F6E2028B3
:100BE000756E6974732F7332293A20503C707269A4
:100BF0006E745F616363656C3E20523C7265747213
:100C00006163745F616363656C3E20543C74726120
:100C100076656C5F616363656C3E0020204D323009
:100C2000312058004D6178696D756D2041636365B1
:100C30006C65726174696F6E2028756E6974732FAC
:100C40007332293A0020450020204D32303320589D
:100C5000004D6178696D756D2066656564726174BB
:100C600065732028756E6974732F73293A00537465
:100C70006570732070657220756E69743A00204447
:100C80000020204D323030205300204469736162CF
:100C90006C65640A0046696C616D656E74207365ED
:100CA0007474696E67733A0020286D6D29002020E6
:100CB000473231202020203B20556E697473206913
:100CC0006E206D6D0024F4D43050C38E20C2A2403B
:100CD00017828B7011127A910D816CD90AA861E18B
:100CE00008C7586607615143061E4B5D05C145A7FD
:100CF000041A411104093D9803713931034036DB70
:100D00000265339102D4305402802E1D02632CEE12
:100D100001752AC501B028A001102781018F256423
:100D2000012B244B01E0223401AC211F018D200D49
:100D300001801FFC00841EED00971DDF00B81CD24F
:100D400000E61BC600201BBC00641AB200B219A842
:100D5000000A19A0006A189900D117910040178B5A
:100D600000B516840031167E00B31579003A15736C
:100D700000C7146F0058146A00EE136600881363EE
:100D80000025135E00C7125B006C12570015125449
:100D900000C111510070114F0021114B00D61049B4
:100DA000008D1047004610440002104200C00F4062
:100DB00000800F3E00420F3C00060F3B00CB0E3878
:100DC00000930E37005C0E3500270E3400F30D3211
:100DD00000C10D3100900D3000600D2E00320D2D40
:100DE00000050D2C00D90C2B00AE0C2900850C2918
:100DF000005C0C2700350C27000E0C2600E80B24A5
:100E000000C40B2400A00B23007D0B23005A0B21F0
:100E100000390B2100180B2000F80A1F00D90A1E08
:100E200000BB0A1E009D0A1D00800A1D00630A1CEB
:100E300000470A1B002C0A1B00110A1A00F7091AA6
:100E400000DD091900C4091900AB0919009209173E
:100E5000007B091800630917004C091600360916B3
:100E600000200916000A091500F5081500E008140D
:100E700000CC081400B8081400A40814009008134B
:100E8000007D0812006B0813005808120046081273
:100E90000034081100230811001208110001081184
:100EA00000F0071000E0071000D0071000C0071086
:100EB00000B0070F00A107100091070E0083070F75
:100EC0000074070F0065070E0057070E0049070E54
:100ED000003B070D002E070E0020070D0013070D25
:100EE0000006070D00F9060C00ED060D00E0060CEB
:100EF00000D4060C00C8060C00BC060C00B0060CA2
:100F000000A4060B0099060C008D060B0082060B50
:100F10000077060B006C060B0061060A0057060BF3
:100F2000004C060A0042060A0038060A002E060A8D
:100F30000024060A001A060A001006090007060A1D
:100F400000FD050900F4050900EB050900E20509AB
:100F500000D9050900D0050900C7050900BE05092B
:100F600000B5050800AD050800A50509009C0508A9
:100F700000940508008C050800840508007C05081D
:100F800000740508006C050700650508005D05078D
:100F900000560508004E05070047050700400508F4
:100FA0000038050700310507002A0507002305075B
:100FB000001C050600160507000F050700080506BA
:100FC0000002050700FB040600F5040700EE040616
:100FD00000E8040600E2040700DB040600D504066E
:100FE00000CF040600C9040600C3040600BD0406C1
:100FF00000B7040600B1040500AC040600A6040610
:1010000000A00405009B040600950405009004065A
:10101000008A04050085040500800406007A0405A2
:101020000075040500700405006B040500660405E6
:1010300000610405005C0405005704050052040526
:10104000004D04050048040500430405003E040467
:10105000003A04050035040500300404002C0405A2
:101060000027040400230405001E0404001A0404DD
:101070000016040500110404000D04040009040511
:10108000000404040000040400FC030400F803044A
:1010900000F4030400F0030400EC030400E803047C
:1010A00000E4030400E0030400DC030400D80304AC
:1010B00000D4030400D0030400CC030400C80303DD
:1010C00000C503030024F404D9201BC40C5C0E9853
:1010D00004C4095F0265077101F405F900FB04B35C
:1010E0000048048700C10369005803550003034505
:1010F00000BE023A008402310053022A0029022570
:101100000004022000E4011C00C8011900AF01170F
:101110000098011400840113007101100061011096
:101120000051010E0043010D0036010B002B010B95
:101130000020010B00150109000C01090003010842
:1011400000FB000800F3000800EB000700E40006C5
:1011500000DE000600D8000600D2000600CC000524
:1011600000C7000500C2000500BD000400B900046E
:1011700000B5000400B1000400AD000400A90004A3
:1011800000A5000300A20003009F0004009B0003D1
:1011900000980003009500020093000300900003F4
:1011A000008D0002008B0003008800020086000210
:1011B0000084000300810002007F0002007D000225
:1011C000007B000200790002007700010076000237
:1011D000007400020072000100710002006F000242
:1011E000006D0001006C0002006A0001006900024D
:1011F0000067000100660001006500010064000254
:10120000006200010061000100600001005F000257
:10121000005D0001005C0001005B0001005A00015C
:10122000005900010058000100570001005600015C
:10123000005500010054000100530000005300015C
:10124000005200010051000100500001004F000158
:10125000004E0000004E0001004D0001004C000156
:10126000004B0000004B0001004A00010049000152
:10127000004800000048000100470001004600004F
:101280000046000100450000004500010044000147
:101290000043000000430001004200000042000142
:1012A000004100000041000100400001003F00003B
:1012B000003F0001003E0000003E0001003D000034
:1012C000003D0001003C0000003C0000003C00012B
:1012D000003B0000003B0001003A0000003A000122
:1012E000003900000039000100380000003800001B
:1012F0000038000100370000003700010036000010
:101300000036000000360001003500000035000006
:1013100000350001003400000034000000340001FA
:1013200000330000003300000033000100320000F1
:1013300000320000003200010031000000310000E6
:1013400000310001003000000030000000300001DA
:10135000002F0000002F0000002F0000002F0001D0
:10136000002E0000002E0000002E0001002D0000C5
:10137000002D0000002D0000002D0001002C0000B9
:10138000002C0000002C0000002C0001002B0000AD
:10139000002B0000002B0000002B0001002A0000A1
:1013A000002A0000002A0000002A00010029000095
:1013B0000029000000290000002900000029000188
:1013C000002800000028000000280000002800007D
:1013D000002800010027000000270000002700006F
:1013E0000027000000270001002600000026000062
:1013F0000026000000260000002600010025000055
:101400000025000000250000002500000025000048
:10141000002500010024000000240000002400003A
:10142000002400000024000100230000002300002D
:101430000023000000230000002300000023000020
:101440000023000100220000002200000022000012
:101450000022000000220000002200010021000004
:1014600000210000002100000021000000210000F8
:1014700000210000002100010020000000200000E9
:1014800000200000002000000020000000200000DC
:101490000020000000200001001F0000001F0000CD
:1014A000001F0000001F0000001F0000001F0000C0
:1014B000001F0001001E0000001E0000001E0000B2
:1014C000001E000000043700001E290000511B0010
:1014D000005810000010090000CC04000078020041
:1014E00000410100005761726E696E673A20486FD3
:1014F0006D696E672042756D702044697669736FFF
:1015000072203C20310A0048617264636F64656434
:101510002044656661756C742053657474696E67E8
:1015200073204C6F616465640A003B200002020472
:101530000000A0400000A0400000004000007A43EE
:1015400000007A4300004843000000000000000053
:101550000000000000009643000096430000A040F9
:101560000000C8416A3C31426A3CB1410000C844B5
:101570000000564220030000580200000A0000004C
:101580001027000070012C0190012701B0012201F9
:10159000C0011D01F00118011002130130020E01FB
:1015A0006002090190020401C002FF000003FA007A
:1015B0004003F5008003F000D003EB002004E600B8
:1015C0007004E100E004DC004005D700C005D20053
:1015D0004006CD00D006C8008007C3003008BE001A
:1015E000F008B900C009B400B00AAF00B00BAA00FF
:1015F000D00CA500000EA000500F9B00C01096005C
:101600005012910000148C00C0158700B0178200A2
:10161000B0197D00D01B7800001E730040206E00C2
:1016200090226900F024640040275F0090295A004E
:10163000E02B5500102E500020304B001032460099
:10164000E033410090353C001037370070383200ED
:10165000A0392D00B03A2800A03B2300603C1E00BA
:10166000103D1900903D1400103E0F00703E0A001E
:10167000C03E0500003F0000403FFBFF803FF6FFFB
:10168000C03FF1FF2020506C616E6E65724275663E
:1016900066657242797465733A200020467265650A
:1016A000204D656D6F72793A2000436F6D70696CE3
:1016B00065643A2041707220323220323032310A71
:1016C00000204C61737420557064617465643A2025
:1016D000323032302D31302D3135207C204175743F
:1016E000686F723A204461766964202D2064616ECF
:1016F0006465303131202D204A6F6E6965340A00EF
:10170000322E302E372E320A004D61726C696E0017
:1017100020536F6674776172652052657365740A31
:1017200000205761746368646F6720526573657445
:101730000A002042726F776E206F757420526573B5
:1017400065740A002045787465726E616C2052657C
:101750007365740A00506F77657255700A00656E84
:101760006473746F7073206869743A2000220A00F1
:10177000556E6B6E6F776E20636F6D6D616E643A40
:1017800020220020453A00205A3A0020593A000011
:10179000002200250028002B002E0031003400021A
:1017A000010000050108010B0105050505070508F5
:1017B000080808020202020A0A08080404040401D4
:1017C00001010101010101030303030303030304F6
:1017D0000707070C0C0C0C0C0C0C0C020202020686
:1017E000060606060606060B0B0B0B0B0B0B0B0176
:1017F0000210202008081020401020408002010222
:1018000001080402010102040810204080804020E9
:101810001008040201800402018040201008040224
:1018200001080402010102040810204080010204A2
:10183000081020408000000A0B02090C0D0E08075A
:101840000304010000000000000000000000000090
:101850000000000000000000000000000000000088
:101860000012111000000000000000000000000045
:1018700000000000000000000000000021671124AB
:101880001FBECFEFD1E2DEBFCDBF00E00CBF12E044
:10189000A0E0B2E0E6E2F6EE00E00BBF02C0079087
:1018A0000D92A636B107D9F72BE0A6E6B2E001C04B
:1018B0001D92AA3DB207E1F71CE0CFE3DCE000E0B7
:1018C00006C021970109802FFE010E94CC6FCE3304
:1018D000D10780E00807A9F70E948C630C9411736C
:1018E0000C9400002F923F924F925F926F927F92E2
:1018F0008F929F92AF92BF92CF92DF92EF92FF9220
:101900000F931F93CF93DF93CDB7DEB7C158D109A3
:101910000FB6F894DEBF0FBECDBF2091D802A196BE
:101920002FAFA19781E08093D8028091D7028D34A8
:1019300009F46EC2843511F40C94D419873411F073
:101940000C94F9192090D5023090D60234E0231679
:10195000310409F495C154F437FC56C28091D30286
:1019600052E0251631040CF0FFC02FC08AE528167E
:10197000310409F4D4C164F4A5E12A16310411F448
:101980000C94FB19BCE12B16310409F4B8C13CC21C
:10199000EBE52E16310409F4C6C1FCE52F1631041F
:1019A00009F032C24CE5242E42E0342E5EEAE52EE8
:1019B00052E0F52EACE4B2E0BB8FAA8F69E8C62EE8
:1019C0006BE0D62E00E010E0EFC1813011F00C94F6
:1019D000FB190E94282E83EC92E00E9489298091B5
:1019E000100983FD85C02091580230915902409121
:1019F0005A0250915B026091CF027091D0028091A7
:101A0000D1029091D2020E946C6B882309F470C0BD
:101A10008091860481111BC060918B0470918C04AD
:101A200080918D0490918E040E9453712091380210
:101A300030913902215031096217730744F40E9432
:101A4000963085E99AE00E94873011E001C010E0ED
:101A5000209158023091590240915A0250915B02F4
:101A60006091CF027091D0028091D1029091D20208
:101A70000E94E66F6B017C0120E030E0A9010E942A
:101A8000477287FF04C0F7FAF094F7F8F0942091BA
:101A90003402309135024091360250913702C7012D
:101AA000B6010E94D26B20E030E048E453E40E948B
:101AB000477218163CF40E94963086E79AE00E941E
:101AC000873002C01123A1F08091CF029091D00203
:101AD000A091D102B091D202809358029093590202
:101AE000A0935A02B0935B028FEC92E00E94195DC2
:101AF0002AE037ED43E25CE360912C0270912D0205
:101B000080912E0290912F020E94D26B6B017C017A
:101B100060912A0270912B02072E000C880B990B02
:101B20000E94736B9B01AC01C701B6010E94D26B8E
:101B300069837A838B839C838E010F5F1F4F2FEC09
:101B400032E04BEC52E067EC72E083EC92E00E94F2
:101B5000326380E1E3ECF2E0ACE4B2E001900D929C
:101B60008A95E1F70C94FB19813011F00C94FB1964
:101B70000E94282E82E50E941B2E882309F44EC065
:101B80000E94962D6B017C0120E030E0A9010E94AB
:101B90006C6B882311F40C94D01A20914C02309174
:101BA0004D0240914E0250914F022A8F3B8F4C8F35
:101BB0005D8F8091500290915102A0915202B0919C
:101BC00053028E8F9F8FA8A3B9A38090C3029090D9
:101BD000C402A090C502B090C6024090C7025090C7
:101BE000C8026090C9027090CA02A50194016A8D72
:101BF0007B8D8C8D9D8D0E946C6B81110C94111AC4
:101C0000A30192016E8D7F8D88A199A10E946C6BBA
:101C1000882311F40C94D01A0C94111A89E40E94B0
:101C20001B2E882329F00E94962D6B017C0103C096
:101C3000C12CD12C76018AE40E941B2E882311F43A
:101C40000C94D71A0E94962D6AA37BA38CA39DA304
:101C500020E030E0A901C701B6010E946C6B811140
:101C60000C94E41A20E030E0A9016AA17BA18CA1C8
:101C70009DA10E946C6B81110C94E41A0C94D01AF3
:101C800080E50E941B2E882379F08091BD029091FF
:101C9000BE02009749F04AE050E060E070E00E9428
:101CA000E3696B017C0103C0C12CD12C760183E573
:101CB0000E941B2E882361F00E94962D20E030E0C8
:101CC0004AE754E40E94D26B0E945A716B017C0176
:101CD0000E943E5A0E94E861C60ED71EE81EF91EF9
:101CE0000E94E861DC01CB018C199D09AE09BF0996
:101CF000B7FD02C00C94FB190E94E831F1CF80912E
:101D0000BC028770873011F00C94841E60E08FE471
:101D10000E94DA2E81110C94FB190C94841E1092EF
:101D2000D4020C94FB198FE08093D4020C94FB191D
:101D30000E94962D2B013C01133049F0D6012D91C4
:101D40003D914D915C910E94E66F2B013C01EA8D23
:101D5000FB8D2081318142815381C301B2010E94F8
:101D6000E66F4B015C012DEB37E346E855EB0E9433
:101D7000477287FD21C02DEB37E346E855E3C501E7
:101D8000B4010E946C6B1816BCF01F5FF4E0EF0EFC
:101D9000F11C2A8D3B8D2C5F3F4F3B8F2A8F34E007
:101DA000C30ED11C143031F1F10181911F010E9449
:101DB0001B2E882351F3BCCF133051F440925802AC
:101DC0005092590260925A0270925B0201E0DDCF9C
:101DD000A5019401D7016D917D918D919C910E94F7
:101DE000E76FF7016083718382839383812F0E9461
:101DF000A128CBCF002321F088E592E00E94195D55
:101E00000E947C2A0C94FB190E941D630C94FB1900
:101E10000091D5021091D6020737110509F489C641
:101E20000CF0FFC00836110509F46BC20CF040C07D
:101E30000D34110509F461C2CCF40F31110509F418
:101E40009CC154F40131110509F483C1023111051B
:101E500009F449C50C94D1190B34110509F434C2A5
:101E60000C34110509F434C20C94D1190335110551
:101E700009F432C58CF40135110509F41EC502358B
:101E8000110511F00C94D1198091D4028F7D8061DD
:101E90008093D4020C94FB190535110509F459C53A
:101EA0000CF421C50C35110509F476C50C94D11933
:101EB0000F36110509F42FC4B4F40B36110509F4DB
:101EC00011C454F40936110509F4D5C30A361105B5
:101ED00009F4E7C30C94D1190D36110509F431C288
:101EE0000CF462C407C40237110509F4DFC554F4C9
:101EF0000037110509F45BC40137110509F461C409
:101F00000C94D1190537110511F40C94FB190CF040
:101F1000D4C50337110511F00C94D1198CE496E067
:101F20000E94873060E08CE396E00E94482D60E0DC
:101F300087E296E00E94482D60E080E296E00E94F1
:101F4000482D61E085E196E00E94482D61E085E042
:101F500096E00E94482D60E08CEF95E00E94482DAD
:101F600061E082EF95E00E94482D60E088EE95E008
:101F70000E94482D60E081EE95E00E94482D60E0CF
:101F800089ED95E00E94482D60E08BEC95E00E9481
:101F9000482D60E08DEB95E00E94482D60E08EEAD0
:101FA00095E00E94482D60E080EA95E00E94482D6F
:101FB00060E08AE895E00E94482D60E089E795E0BE
:101FC0000E94482D60E08AE695E00E94482D60E07E
:101FD00083E695E00E94482D60E08EE495E00E9443
:101FE000482D60E080E495E00E94482D61E08DE29C
:101FF00095E00E94482D60E080E295E00E94482D27
:1020000061E08BE195E00E94482D60E08EE095E074
:102010000E94482D60E08AEF94E00E94482D0C94C5
:10202000FB190C3D110509F421C70CF040C0083C18
:10203000110509F489C504F50C38110509F4E8C344
:102040008CF40837110509F477C50937110511F02B
:102050000C94D1191092BB021092BA020E94132F55
:102060000C94FB190B39110509F401C40E3B110541
:1020700009F4EBC30C94D1190C3C110509F4F3C518
:1020800054F4093C110509F4A6C50B3C110509F4EB
:10209000C9C50C94D1190E3C110509F405C60CF400
:1020A000F0C5033D110509F41BC60C94D1190A397A
:1020B00041E0140709F482C314F50E3281E01807D9
:1020C00011F40C94A51854F40D3D110509F4F5C64E
:1020D0000D32114009F447C70C94D1190033B1E017
:1020E0001B0709F4BFC714F40C94E9180039114018
:1020F00011F00C94D1190E943E5A0C94FB19053F23
:1021000021E0120711F40C94B3199CF40C3A41E04D
:10211000140711F40C944419043F114011F00C946D
:10212000D1190E94B32F8CE692E00E9487300C9464
:10213000FB19073F81E0180711F40C94BC1914F443
:102140000C94B919073E134011F40C94C5190C9462
:10215000D1198091AA0284FF02C00C94B01F809113
:10216000AC0287FF02C00C94B01F8091AD02837057
:1021700011F00C94B01F0C94CC1F0E94242B7B01F7
:102180008C0120E831E541E050E00E945D6FC9011B
:102190006DE671E00E94996F4B015C01C801B701C7
:1021A00020E13EE040E050E00E945D6FCA01B901CD
:1021B00028E130E040E050E00E945D6F762E672E0F
:1021C000C62ED72E3CE3232E312C412C512CC80196
:1021D000B701A20191010E945D6FF62EE72ECA01A0
:1021E000B901A20191010E945D6FCB018E010F5FC9
:1021F0001F4F8114910499F0EF92FF927F936F9398
:102200006F927F92BF92AF929F928F9286E497E0F7
:102210009F938F931F930F930E943D6B13C0A11444
:10222000B104B1F0EF92FF927F936F936F927F9220
:10223000BF92AF928AE497E09F938F931F930F937F
:102240000E943D6B0FB6F894DEBF0FBECDBF30C00D
:10225000CD2879F0EF92FF927F936F936F927F92E8
:102260008EE497E09F938F931F930F930E943D6B93
:10227000E9CF892B69F0EF92FF927F936F9382E50C
:1022800097E09F938F931F930F930E943D6BDACF3C
:10229000EF92FF9286E597E09F938F931F930F93A2
:1022A0000E943D6B0F900F900F900F900F900F902A
:1022B0000E949630B8018AE597E00E94A02F8AE03C
:1022C0000E9480300C94FB190E94732B0C94FB1914
:1022D0008091A902813011F00C94FB1982E0809367
:1022E000A9020E94E8616093A5027093A602809300
:1022F000A7029093A8020C94FB190E94972B0C94B0
:10230000FB198091100983FF02C00C94FB190E94F5
:10231000772F87FF02C00C94FB1983E50E941B2EC8
:10232000882359F00E94962D0E945371CB010E9480
:10233000153761E080E00E9400380E94B8590C9483
:10234000FB198091100983FF02C00C94FB190E94B5
:10235000772F8EAB87FF02C00C94FB1983E50E9498
:102360001B2E8EAF81110C94D51F82E50E941B2E6F
:1023700081110C94D51F10E00E94B859112311F45B
:102380000C94FB199091A40260969FAF60971092F5
:10239000A40281E080930F021E8E1F8E18A219A244
:1023A0001AAA1BAA1CAA1DAA23961FAE2397ACE348
:1023B0002796AFAF2797BCE12B96BFAF2B97E6E4EC
:1023C0002F96EFAF2F97C12CD12C90E8E92E2FEB51
:1023D000F22E1A8EF1E0FAAF812C912C540160910B
:1023E0008F0470919004072E000C880B990B0E94AB
:1023F000736B162F072F782E692E9601A7010E9466
:102400006C6B882321F120918B0430918C044091D6
:102410008D0450918E048EAD612F702F811109C0F3
:10242000872D962D0E946C6B881F8827881F8A8FA6
:1024300014C0872D962D0E946C6B87FF0DC0809174
:102440000F02882309F411C110920F020EC11C2D36
:102450000D2D7E2C6F2C01C01A8E0E94E8616B013D
:102460007C01DC01CB012AA93BA94CA95DA9821BF7
:10247000930BA40BB50BB7FD33C0D701C601885130
:102480009C4FAF4FBF4F8AAB9BABACABBDAB8EA9E4
:102490000E94563782E497E00E94873081149104AD
:1024A000A104B104B9F0D501C401805F984DAF4FCC
:1024B000BF4FBC01CD016C197D098E099F0928EE23
:1024C00033E040E050E00E945D6FCA01B9010E9414
:1024D000303103C08FE30E9480308AE00E94803058
:1024E0000E94E8310E94E8616093BF027093C002CD
:1024F0008093C1029093C20290918B049AA3A09101
:102500008C04AEA3B0918D04BAA7E0918E04EEA71F
:10251000292F3A2F4B2F5E2F612F702F872D962D4D
:102520000E94E66F1B012C0120E030E0A9010E940F
:10253000477287FF04C057FA509457F8509481149B
:102540009104A104B104E1F420E030E040E85FE34D
:10255000C201B1010E946C6B87FF1EC0FAADFF2360
:1025600039F085E0882E8DE0982EA12CB12C03C087
:10257000812C912C54018C0C9D1CAE1CBF1C0CC0DA
:1025800020E030E040E450E4C201B1010E94477213
:10259000181614F4460157012A8D222309F448C065
:1025A0008E8D9F8DA8A1B9A1892B8A2B8B2B61F0D1
:1025B000D701C6012E8D3F8D48A159A1821B930BD7
:1025C000A40BB50BB7FD34C02AA13EA14AA55EA558
:1025D00023966FAD239727967FAD27972B968FADC8
:1025E0002B972F969FAD2F970E94E66F20E030E04B
:1025F00040EC5FE30E946C6B87FD21CFD701C601E1
:10260000805A9541AF4FBF4F8E8F9F8FA8A3B9A31C
:102610009AA123969FAF2397AEA12796AFAF279796
:10262000BAA52B96BFAF2B97EEA52F96EFAF2F979E
:1026300080910F02882309F402CF81149104A10430
:10264000B10431F41AAEC12ED02EE72CF62CC7CE31
:10265000F0E1CF1AF7E2DF0AE108F108C818D9085B
:10266000EA08FB08F7FCEECFEACE60962FAD609744
:102670002093A402C0C60E94772F182F87FD0AC09E
:1026800089E692E00E948730812F0E9456378AE0C7
:102690000E948030A1963FADA1973093D8020C9450
:1026A000562880E50E942B638111A5C681E40E9413
:1026B000CD2D882321F060917504062F02C00FEF05
:1026C00010E083E50E941B2E882349F00E94622DB2
:1026D0008B016F3F710519F010F00FEF10E00093C0
:1026E000750489C680E50E942B63811184C610920F
:1026F000750481C68EE40E941B2E882309F47BC6D4
:102700000E94622D6093A0027093A1028093A202A6
:102710009093A30270C683E50E94CD2D882329F0F3
:1027200083E50E942B63809310090E9496308BE30F
:1027300097E00E94873080911009882369F1BCE8F6
:10274000EB2EB7E0FB2E00E010E020E080911009B6
:1027500090E0A0E0B0E0002E04C0B695A795979554
:1027600087950A94D2F780FF0EC0DD24D394D20E51
:10277000222319F08CE20E948030F7018591949118
:102780000E9487302D2D0F5F1F4F42E0E40EF11C99
:1027900005301105D9F604C087E397E00E94873021
:1027A0008AE00E94803027C610920F0224C641E0C2
:1027B00060E070E089E297E00E949A300E94013068
:1027C0001AC683E50E941B2E882371F00E94722D89
:1027D000282F30E02D3331051CF480930E020BC6F8
:1027E0008CE380930E0207C60E949630C0900E02C2
:1027F000D12CE12CF12C82E297E00E9487304AE054
:10280000C701B6010E94C3308AE00E948030F3C540
:102810008091100983FDEFC583E50E941B2E88235C
:1028200009F4E9C50E94962D0E9453716C38710518
:102830000CF48B0110939202009391020E941638BF
:1028400061E080E00E940038D6C58091100983FDC8
:10285000D2C583E50E941B2E8EAB81110C94E31F21
:1028600082E50E941B2E81110C94E31FC4C583E5F1
:102870000E941B2E882309F4BEC50E94722D182FBA
:1028800090E0CD970CF01CE3109388020E94E86161
:102890006B017C01212F30E0A8EEB3E00E948A6F2B
:1028A000C60ED71EE81EF91EC0928402D092850281
:1028B000E0928602F09287029EC50E944E380E94E6
:1028C000972B0E944E5A1092750468EE73E080E0D8
:1028D00090E00E94EF2E8FC58091D4028F7E80629F
:1028E0008093D40288C583E50E941B2E8823E9F0DB
:1028F0000E94E8616093BF027093C0028093C1029E
:102900009093C2020E94962D20E030E04AE754E402
:102910000E94D26B0E945A7160930A0270930B025C
:1029200080930C0290930D0266C58091AA0284FFE9
:1029300002C00C9462218091AC0287FF02C00C940B
:1029400062218091AD02837011F00C9462210C948D
:10295000932183E50E94CD2D882309F44CC50E9464
:10296000E8616093BF027093C0028093C1029093AC
:10297000C2020E94962D20E030E04AE754E40E9413
:10298000D26B0E945A7160937F0270938002809391
:102990008102909382022FC50E94772F87FD2BC55D
:1029A0009091AA0294FD04C09091AC0297FF0AC0D6
:1029B0006CE5C62E62E0D62E71E1E72E79E0F72EA7
:1029C00010E009C09091AD02937091F7682F81E0FB
:1029D0000E942F2F10C5D6018D916D010E941B2ED4
:1029E000882309F459C0133009F04FC00E94962D76
:1029F0004B015C0120E030E040EA51E40E946C6B46
:102A000087FF3AC0A50194016091310970913209A4
:102A100080913309909134090E94E1702B013C01AF
:102A20009B01AC0160914109709142098091430979
:102A3000909144090E94D26B6093410970934209BE
:102A4000809343099093440960916D0470916E04E2
:102A500080916F04909170040E94716BA3019201A8
:102A60000E94D26B0E945A7160936D0470936E0441
:102A700080936F0490937004809231099092320990
:102A8000A0923309B092340907C00E94962DF70135
:102A9000648B758B868B978B1F5FF4E0EF0EF11CB8
:102AA000143009F098CF0E944E5EA5C40E94B8620F
:102AB00080EC9BE00E9414409EC400917D02109126
:102AC0007E0294E0F12C40E0915031F1D8018C91DC
:102AD000282F2B7F213429F411962C912133E1F4F6
:102AE00008C08035C9F4F801818180538A3048F0EC
:102AF00013C0813421F0853421F441E002C0FF2469
:102B0000F39498012E5F3F4F89012F5F3F4FD8010B
:102B10008C918032C9F3D8CF41110E949630FF20AA
:102B200021F086EF94E00E948730C8010E94C731EF
:102B300062C40E94032B5FC481E08093BB02809338
:102B4000BA020E94132F57C40E94772F182F87FDB7
:102B500052C400917C0284E40E941B2E882311F44D
:102B60000C9496210E94962D6B017C0120E030E0B0
:102B7000A9010E946C6B882341F1B4E01B02F001B3
:102B80001124E858FD4FC082D182E282F38220E016
:102B900030E0A901609178027091790280917A0207
:102BA00090917B020E946C6B81110CC080E090E0E0
:102BB000A0EEBFE38093780290937902A0937A020B
:102BC000B0937B0201E00C94962180E080937C021C
:102BD0000E945F5A10C40E94772F87FD0CC44CE5F9
:102BE000E42E42E0F42E01E119E051E2C52E59E055
:102BF000D52EF70181917F010E94CD2D882361F0B0
:102C00000E94962D0E945A71D8016D937D938D93E9
:102C10009C9313970E94F7590C5F1F4FC016D10663
:102C200041F7E9C30E94772F87FDE5C33CE5E32E1A
:102C300032E0F32E01E119E0F70181917F010E945A
:102C4000CD2D882349F00E94962DD80194966D933E
:102C50007D938D939C9397970C5F1F4FB9E0013242
:102C60001B0751F7C8C38091AB0287FF02C00C94C9
:102C70009C218091AC028E7011F00C949C210C94DC
:102C8000E2218091AA0281FF02C00C940B22809164
:102C9000AB0281FF02C00C940B228091AC028C70BD
:102CA00011F00C940B22A7C32CE6E22E22E0F22EA8
:102CB00010E088E5810F0E94CD2D882351F00E94FD
:102CC000962DF7016083718382839383812F0E9405
:102CD000A1281F5FF4E0EF0EF11C133051F790C8EC
:102CE0004090890B50908A0B60908B0B70908C0BEE
:102CF000209112023091130240911402509115025A
:102D0000C301B2010E94E76F6A8F7B8F8C8F9D8F0A
:102D100080908D0B90908E0BA0908F0BB090900BAD
:102D20002091160230911702409118025091190219
:102D3000C501B4010E94E76F6E8F7F8F88A399A3AE
:102D4000C090910BD090920BE090930BF090940B6D
:102D500020911A0230911B0240911C0250911D02D9
:102D6000C701B6010E94E76F6AA37BA38CA39DA352
:102D700020911E0230911F024091200250912102A9
:102D8000C301B2010E94E76F2B013C012091220296
:102D9000309123024091240250912502C501B401D3
:102DA0000E94E76F4B015C012091260230912702BF
:102DB0004091280250912902C701B6010E94E76F95
:102DC0006B017C010E94963081EB94E00E94873079
:102DD00083E50E94CD2D882321F00E94862D8093CB
:102DE000100280911002882319F08EE492E002C054
:102DF00088E496E00E94873089EA94E00E94873058
:102E00004A8D5B8D6C8D7D8D81E29CE00E941E2F32
:102E10004E8D5F8D68A179A18EE994E00E941E2FEE
:102E20004AA15BA16CA17DA18BE994E00E941E2FB9
:102E300088EF94E00E94873081EA94E00E94873016
:102E4000B301A20181E29CE00E941E2FB501A40102
:102E50008EE994E00E941E2FB701A6018BE994E051
:102E60000E941E2F8AE00E948030C5C283E50E9426
:102E70001B2E882331F00E94622D70932B026093E9
:102E80002A028091AA029091AB02A091AC02B0916B
:102E9000AD02892B8A2B8B2B09F0ADC260912A02DF
:102EA00070912B0287E994E00E946A2F85E20E94CC
:102EB00080308AE00E9480309EC20E94772FF82ED8
:102EC00087FD99C283E50E941B2E0F2D0F2C000C4D
:102ED000110B882369F10E94622DF801EE0FFF1F8C
:102EE000E85FFD4F71836083000F111F000F111FFA
:102EF00098012C5C3D4F7901072E000C880B990B33
:102F00000E94736B2AE037ED43E25CE30E94D26BD0
:102F1000F801E859FD4F20813181428153810E949F
:102F2000D26BD7016D937D938D939C93139763C25E
:102F30000E94963085E40E94803080E38F0D0E94CD
:102F40008030000F111FF801E85FFD4F6081718133
:102F50008FE894E00E946A2F85E20E9480308AE028
:102F60000E94803048C285E40E942B63811173C0A7
:102F700080E50E94CD2D882351F00E94962D60930C
:102F8000920470939304809394049093950489E43D
:102F90000E94CD2D882381F00E94962D2CEA35ECDD
:102FA00047E25EE30E94D26B6093960470939704AD
:102FB000809398049093990484E40E94CD2D8823F3
:102FC00081F00E94962D2CEA35EC47E25EE30E94E8
:102FD000E17060939A0470939B0480939C04909397
:102FE0009D040E9496304091920450919304609108
:102FF00094047091950489E794E00E941E2F2CEAB6
:1030000035EC47E25EE360919604709197048091FD
:103010009804909199040E94E170AB01BC0185E78E
:1030200094E00E941E2F2CEA35EC47E25EE36091AB
:103030009A0470919B0480919C0490919D040E943D
:10304000D26BAB01BC0181E794E00E941E2F8AE0A5
:103050000E948030D0C10E94B32F8DE794E00E947F
:103060008730C9C180E50E94CD2D882351F00E9490
:10307000962D60939402709395028093960290939C
:10308000970289E40E94CD2D882381F00E94962D1D
:103090002CEA35EC47E25EE30E94D26B6093980223
:1030A0007093990280939A0290939B0284E40E9409
:1030B000CD2D882381F00E94962D2CEA35EC47E235
:1030C0005EE30E94E17060939C0270939D02809386
:1030D0009E0290939F020E949630409194025091DC
:1030E0009502609196027091970289E794E00E94A0
:1030F0001E2F2CEA35EC47E25EE360919802709156
:10310000990280919A0290919B020E94E170AB011A
:10311000BC0185E794E00E941E2F2CEA35EC47E2C3
:103120005EE360919C0270919D0280919E0290915D
:103130009F020E94D26BAB01BC0181E794E00E9428
:103140001E2F8AE00E94803056C183E50E94CD2D5B
:10315000182F882371F00E94962D0E94537170934E
:1031600039026093380221E0672B09F020E02093B8
:10317000860480E50E94CD2D882359F020913802E5
:1031800030913902232B11F00E94862D8093860402
:1031900032C1111130C10E9496308EE594E00E9438
:1031A000873080918604882319F083ED97E002C070
:1031B00085E494E00E948730609138027091390272
:1031C0008DE494E00E946A2F89E494E00E948730A5
:1031D00012C185E40E941B2E882321F00E94622DDB
:1031E0006A8F01C01A8E8A8D8F5F823028F08BE142
:1031F00094E00E948730FFC083E40E941B2E882346
:1032000031F00E94622D68966FAF689704C0B5E0F8
:103210006896BFAF689760E085E50E94DA2EEE966B
:103220008FAFEE97EA8DE7FF07C0C12CD12CACE839
:10323000EA2EA2E4FA2E06C0C12CD12CF4E3EF2E24
:10324000F3E4FF2E83E50E941B2E882321F00E94C9
:10325000962D6B017C01C701B6010E945371072EA8
:10326000000C880B990B0E94736B6EA37AA78EA734
:103270009EAB0E94E8612B013C01FA8DFF3F11F0EB
:103280000C94F6220C943D289091BC0290FD02C053
:1032900087E001C086E091FD8D7FFE0131961F0120
:1032A00092FD02C00C9475228B7F11F00C949F222A
:1032B00000E817E02CE432E03B8F2A8F2DE7C22E86
:1032C00027E0D22E7F01F801659175918591949147
:1032D000AA8DBB8D8D909D90AD90BD90BB8FAA8F18
:1032E000A50194010E94E66F2B013C01F701608368
:1032F00071838283938320E030E040EA51EC0E94A6
:10330000477287FD0AC020E030E040EA51E4C30183
:10331000B2010E946C6B181634F4F60184911816F1
:1033200014F40C94A222D7018D909D90AD90BD9085
:103330007D0120E030E040EA51ECC501B4010E947B
:10334000477287FF02C00C94AE2220E030E040EAD2
:1033500051E4C501B4010E946C6B181614F00C9472
:10336000B6220C94AE220E94C45E80E00E94A75751
:1033700042C00E94C45E3FC061E083E50E94DA2E35
:1033800091E089270E94A75736C081E08093D3023D
:1033900060E083E50E94DA2E81112DC00E94AC2BE3
:1033A0002AC00E941D6327C00091D5021091D60249
:1033B0000E94E8616093BF027093C0028093C102D3
:1033C0009093C2020023B9F00E94963084E50E94D7
:1033D0008030B8017727072E000C880B990B0E94CC
:1033E000303180E20E9480308DE794E00E94873087
:1033F00002C00E941D63E0916602F0E0E053F44FCA
:103400008081882339F089E692E00E9487308AE043
:103410000E948030A196FFADA197F093D8020C9442
:10342000562811E022E02216310409F010E020E0D5
:1034300030E0A901C701B6010E946C6B881F882784
:10344000881F1813A4C020E030E040E85FE32AA3FF
:103450003BA34CA35DA32A8D3B8D4C8D5D8DC50197
:10346000B4010E94E66F20E030E040E05FE30E949C
:10347000D26B6A8F7B8F8C8F9D8F2E8D3F8D48A155
:1034800059A1C301B2010E94E66F20E030E040E0A4
:103490005FE30E94D26B6E8F7F8F88A399A32A8DE2
:1034A0003B8D4C8D5D8DCA01B9010E94D26B4B01E1
:1034B0005C012E8D3F8D48A159A1CA01B9010E941E
:1034C000D26B9B01AC01C501B4010E94E76F0E9461
:1034D00095724B015C019B01AC01C701B6010E94D2
:1034E000E66F2B013C01A5019401C701B6010E94C2
:1034F000E76F9B01AC01C301B2010E94D26B6B016B
:103500007C0120E030E0A9010E94477287FD07C0DE
:10351000C701B6010E9495722B013C0103C0412CEA
:10352000512C32016E8D7F8D88A199A19058A501F3
:1035300094010E94E1702AA13BA14CA15DA10E94CF
:10354000D26BA30192010E94D26B2A8D3B8D4C8DD0
:103550005D8D0E94E76F6B017C01A50194016A8D6E
:103560007B8D8C8D9D8D0E94E1702AA13BA14CA189
:103570005DA10E94D26BA30192010E94D26B2E8D9D
:103580003F8D48A159A10E94E76F0C94240E80E062
:1035900090E0A0E8BFEB8AA39BA3ACA3BDA35BCF45
:1035A0000E94B32F87E697E00E94873024CF20E067
:1035B00030E0A901C701B6010E946C6B882381F33A
:1035C0001AA21BA21CA21DA2A701960150582A8F65
:1035D0003B8F4C8F5D8F8AA19BA1ACA1BDA1B05840
:1035E0008E8F9F8FA8A3B9A3CA01B9010E94D26B85
:1035F0004B015C012E8D3F8D48A159A1CA01B90133
:103600000E94D26B9B01AC01C501B4010E94E76F1F
:103610000E9495726AAF7BAF8CAF9DAF20914C0238
:1036200030914D0240914E0250914F022EA33FA384
:1036300048A759A7A70196016EA17FA188A599A5C2
:103640000E94E76F6EAB7FAB88AF99AF809150025D
:1036500090915102A0915202B09153028AA79BA768
:10366000ACA7BDA72AA13BA14CA15DA1BC01CD0186
:103670000E94E76F22966CAF7DAF8EAF9FAF22970F
:103680002091C3023091C4024091C5025091C602FC
:103690002EA73FA748AB59AB2EA93FA948AD59ADBE
:1036A0006EA57FA588A999A90E94E66F6B017C0190
:1036B0008091C7029091C802A091C902B091CA023C
:1036C0008AAB9BABACABBDAB22962CAD3DAD4EAD4A
:1036D0005FAD2297BC01CD010E94E66F4B015C01FA
:1036E000A70196016A8D7B8D8C8D9D8D0E94D26B7A
:1036F0002B013C01A50194016E8D7F8D88A199A1BC
:103700000E94D26B9B01AC01C301B2010E94E76F22
:103710002B013C01A50194016A8D7B8D8C8D9D8DC3
:103720000E94D26B4B015C01A70196016E8D7F8DCB
:1037300088A199A10E94D26B9B01AC01C501B40183
:103740000E94E66FA30192010E9466706B017C01EA
:1037500020E030E0A9010E946C6B87FF0AC02BEDCE
:103760003FE049EC50E4C701B6010E94E76F6B01EE
:103770007C012BED3FE049EC50E4C701B6010E940B
:10378000E17020E030E040EC51E40E94D26B0E94F6
:10379000C5700E945A718B01672B11F401E010E093
:1037A00032E02316310451F42BED3FE049EC50E4B4
:1037B000C701B6010E94E66F6B017C0120E030E09A
:1037C000A901C701B6010E946C6B811122C02EA510
:1037D0003FA548A959A96EA17FA188A599A50E94D6
:1037E0006C6B811116C02AA93BA94CA95DA96AA5D9
:1037F0007BA58CA59DA50E946C6B81110AC008E178
:1038000010E0EBEDCE2EEFE0DE2EE9ECEE2EE0E464
:10381000FE2E8091540290915502A0915602B091D3
:1038200057028AA79BA7ACA7BDA79C01AD016091D9
:10383000CB027091CC028091CD029091CE020E9479
:10384000E66F2B013C01A70196016AAD7BAD8CAD03
:103850009DAD0E94D26B4B015C0120E030E0A901DC
:10386000C301B2010E946C6B8823C9F0A5019401C9
:10387000C501B4010E94D26B4B015C01A30192010E
:10388000C301B2010E94D26B9B01AC01C501B4011E
:103890000E94E76F0E9495724B015C010DC020E011
:1038A00030E0A901C501B4010E94477287FF04C03E
:1038B000B7FAB094B7F8B0942FE632E143E85AE390
:1038C000C501B4010E946C6B87FD13C22091CF0229
:1038D0003091D0024091D1025091D2022AAB3BAB41
:1038E0004CAB5DAB8091580290915902A0915A0265
:1038F000B0915B028EA79FA7A8ABB9AB2AE037EDCA
:1039000043E25CE360912C0270912D0280912E02C3
:1039100090912F020E94D26B6EA37FA388A799A7D4
:1039200060912A0270912B02072E000C880B990BD4
:103930000E94736B9B01AC016EA17FA188A599A524
:103940000E94D26B6E8B7F8B888F998FC501B401DB
:103950000E9489710E945A711B016017710708F457
:103960001801B10180E090E00E94716B4B015C0195
:103970009B01AC01C701B6010E94E1706EA37FA359
:1039800088A799A7A5019401C301B2010E94E17023
:103990002A966CAF7DAF8EAF9FAF2A972EA53FA51D
:1039A00048A959A96AA97BA98CA99DA90E94E66F7B
:1039B000A50194010E94E1702E966CAF7DAF8EAF91
:1039C0009FAF2E972EA13FA148A559A5CA01B901C5
:1039D0000E94D26B6B017C019B01AC016EA17FA1A7
:1039E00088A599A50E94D26B20E030E040EC50E41D
:1039F0000E94E1709B01AC016EA17FA188A599A5F1
:103A00000E94E66F6AAB7BAB8CAB9DAB20E030E0F5
:103A100040E05FE3C701B6010E94D26B9B01AC019D
:103A200060E070E080E89FE30E94E66F6AAF7BAFE2
:103A30008CAF9DAF2AA53BA54CA55DA529873A87EC
:103A40004B875C878EA59FA5A8A9B9A98D879E875E
:103A5000AF87B88B0E94E8619B01AC0128533F4FB0
:103A60004F4F5F4F26962CAF3DAF4EAF5FAF2697BF
:103A70004A8C5B8C6C8C7D8C41E050E05BA74AA744
:103A800059E15EA78AA59BA58215930508F00BC195
:103A90000E94053C0E94E861DC01CB0126962CAD1A
:103AA0003DAD4EAD5FAD2697821B930BA40BB50BBE
:103AB000B7FD10C00E94E8619B01AC0128533F4F45
:103AC0004F4F5F4F26962CAF3DAF4EAF5FAF26975F
:103AD0000E94E8313EA531503EA73323E9F12E8DF7
:103AE0003F8D48A159A16AAD7BAD8CAD9DAD0E94C3
:103AF000D26B6B017C019201A3016AA97BA98CA9FD
:103B00009DA90E94D26BA70196010E94E76F7B01DD
:103B10008C019201A3016AAD7BAD8CAD9DAD0E947D
:103B2000D26B4B015C012E8D3F8D48A159A16AA932
:103B30007BA98CA99DA90E94D26B9B01AC01C501F8
:103B4000B4010E94E66F2B013C01C701D8018E8FA2
:103B50009F8FA8A3B9A34FC04AA55BA5BA0180E077
:103B600090E00E94716B2EA13FA148A559A50E942B
:103B7000D26B4B015C010E94DC706B017C01C501C2
:103B8000B4010E9487724B015C01A70196016A8D06
:103B90007B8D8C8D9D8D0E94D26B2B013C012AA1C7
:103BA0003BA14CA15DA1C501B4010E94D26BA30150
:103BB00092010E94E76F2B013C01A50194016A8DDF
:103BC0007B8D8C8D9D8D0E94D26B4B015C012AA157
:103BD0003BA14CA15DA1C701B6010E94D26B9B0124
:103BE000AC01C501B4010E94E66F6E8F7F8F88A380
:103BF00099A359E15EA79201A3016EA97FA988AD9F
:103C000099AD0E94E76F69837A838B839C832E8DA5
:103C10003F8D48A159A122966CAD7DAD8EAD9FAD73
:103C200022970E94E76F6D837E838F8398872A9601
:103C30002CAD3DAD4EAD5FAD2A9769857A858B85FC
:103C40009C850E94E76F69877A878B879C872E9671
:103C50002CAD3DAD4EAD5FAD2E976D857E858F85CC
:103C600098890E94E76F6D877E878F87988BCE013A
:103C700001960E9489298E010A5E1F4F9E01235FD3
:103C80003F4FAE01475F5F4FBE016B5F7F4FCE017D
:103C900001960E943263882331F08AA59BA5019684
:103CA0009BA78AA7EFCE80E1E3ECF2E0DE0111965C
:103CB00001900D928A95E1F7CE0101960E94892923
:103CC0008E010A5E1F4F9E01235F3F4FAE01475F8B
:103CD0005F4FBE016B5F7F4FCE0101960E94326342
:103CE00080E1FE013196ACE4B2E001900D928A953C
:103CF000E1F70E94E8616093BF027093C002809375
:103D0000C1029093C20277CB0E943E5A10921102D8
:103D10000E94E8616093BF027093C0028093C10269
:103D20009093C20280912C0290912D02A0912E02BC
:103D3000B0912F028093DB029093DC02A093DD020E
:103D4000B093DE0280912A0290912B029093DA02C6
:103D50008093D90284E690E090932B0280932A020C
:103D600081E08093BB020E94132F8AE50E94CD2D33
:103D7000382E88E50E94CD2D882E89E50E94CD2D14
:103D80008812ECC0381411F0D82C06C0DD24D3946E
:103D9000882483943324339482E50E941B2E882345
:103DA00069F00E94962D2B013C0120E030E0A90132
:103DB0000E946C6B882309F4A1C006C0412C512CD1
:103DC00070EA672E70E4772E811003C0DD2009F4BD
:103DD0009FC020E030E0A901C301B2010E94E76F5B
:103DE0007B018C0190905402C0905502B090560215
:103DF000A0905702292D3C2D4B2D5A2D0E946C6B03
:103E000040904C0250904D0260904E0270904F02D4
:103E10002091500230915102409152025091530230
:103E20002A8F3B8F4C8F5D8F20E030E048E453E4D5
:103E300087FDC3C3B701C8010E946C6B87FD04C036
:103E4000E12CF12C08E413E480E090E0A0E8B0E479
:103E50008E8B9F8BA88FB98F89839A83AB83BC830A
:103E60009701A801692D7C2D8B2D9A2D0E946C6BDA
:103E700087FF0EC0C701D80180935402909355026A
:103E8000A0935602B0935702CE0146960E942A2A6A
:103E900040924C0250924D0260924E0270924F023C
:103EA0008A8D9B8DAC8DBD8D809350029093510275
:103EB000A0935202B0935302CE0101960E942A2A87
:103EC0009701A801609154027091550280915602A9
:103ED000909157020E944772181674F4C701D801D6
:103EE0008093540290935502A0935602B0935702C8
:103EF000CE0146960E942A2A0E943E5A882019F036
:103F000080E00E94B860DD2019F081E00E94B86076
:103F1000332019F082E00E94B8600E943A2A809112
:103F2000BA028093BB028091DB029091DC02A091E7
:103F3000DD02B091DE0280932C0290932D02A093BB
:103F40002E02B0932F028091D9029091DA029093C1
:103F50002B0280932A020E947C2A4DCAD82E1CCFA5
:103F600088E50E94CD2D81115F9889E50E94CD2DB5
:103F700081118A988AE50E94CD2D882329F08091AD
:103F8000080181708093060185E40E94CD2D88236D
:103F900009F431CA12982FCA5F988A988091080153
:103FA000817080930601129826CA0E94962D0E9465
:103FB0005371CB010E94153761E081E00E94003807
:103FC00011E00C94BC110E94962D0E9453716C3824
:103FD00071050CF074C170939202609391020E947B
:103FE000163860E081E00E94003881E080930F0283
:103FF0001E8E1F8E18A219A222961CAE1DAE1EAEDA
:104000001FAE22971AAE5CE323965FAF23978CE135
:1040100027968FAF279796E42B969FAF2B97C12CAF
:10402000D12CF0E8EF2EAFEBFA2E1A8EA1E0AAAB5E
:10403000812C912C54016091910270919202072E73
:10404000000C880B990B0E94736B162F072F782E8C
:10405000692E9601A7010E946C6B882311F12091B3
:104060008D0230918E0240918F0250919002BEA934
:10407000612F702F872D962DB11107C00E946C6B98
:10408000881F8827881F8A8F12C00E946C6B87FF49
:104090000DC080910F02882309F4ADC910920F0260
:1040A000AAC91C2D0D2D7E2C6F2C01C01A8E0E94CA
:1040B000E8616B017C01DC01CB0122962CAD3DADAA
:1040C0004EAD5FAD2297821B930BA40BB50BB7FDD2
:1040D00035C0D701C60188519C4FAF4FBF4F2296C4
:1040E0008CAF9DAFAEAFBFAF229780E00E94563736
:1040F00082E497E00E94873081149104A104B10406
:10410000B9F0D501C401805F984DAF4FBF4FBC01DE
:10411000CD016C197D098E099F0928EE33E040E03E
:1041200050E00E945D6FCA01B9010E94303103C0A6
:104130008FE30E9480308AE00E9480300E94E83144
:104140000E94E8616093BF027093C0028093C10235
:104150009093C20290918D029AA3A0918E02AEA379
:10416000B0918F02BAA7E0919002EEA7292F3A2FC3
:104170004B2F5E2F612F702F872D962D0E94E66F9B
:104180001B012C0120E030E0A9010E94477287FF4B
:1041900004C057FA509457F8509481149104A10424
:1041A000B104E1F420E030E040E85FE3C201B10196
:1041B0000E946C6B87FF1EC0FAA9FF2339F0E5E06F
:1041C0008E2EEDE09E2EA12CB12C03C0812C912CC3
:1041D00054018C0C9D1CAE1CBF1C0CC020E030E0B8
:1041E00040E450E4C201B1010E944772181614F471
:1041F000460157012A8D222309F444C08E8D9F8DDC
:10420000A8A1B9A1892B8A2B8B2B61F0D701C601FC
:104210002E8D3F8D48A159A1821B930BA40BB50B8A
:10422000B7FD30C02AA13EA14AA55EA56AAD23967E
:104230007FAD239727968FAD27972B969FAD2B9712
:104240000E94E66F20E030E040E85FE30E946C6B84
:1042500087FD1FCFD701C601805A9541AF4FBF4F91
:104260008E8F9F8FA8A3B9A39AA19AAFAEA12396D0
:10427000AFAF2397BAA52796BFAF2797EEA52B968A
:10428000EFAF2B9780910F02882309F402CF81149E
:104290009104A104B10431F41AAAC12ED02EE72C46
:1042A000F62CC9CEF0E1CF1AF7E2DF0AE108F108F7
:1042B000C818D908EA08FB08F7FCEECFEACE6CE88C
:1042C00070E089CE0E943E5A88E50E94CD2D882359
:1042D00031F05F9A809183028E7F8093830289E51B
:1042E0000E94CD2D882331F08A9A809183028D7FA0
:1042F000809383028AE50E94CD2D882359F0809116
:1043000008018095817080930601809183028B7FE4
:104310008093830285E40E94CD2D882309F46BC825
:104320000E94E62F68C80E944E5A65C8602F83E538
:104330000E94DA2E0C94E61583E50E941B2E88233A
:1043400091F00E94962D60934509709346098093E1
:1043500047099093480960934D0970934E098093E3
:104360004F099093500980E50E941B2E882351F03D
:104370000E94962D609345097093460980934709E2
:104380009093480982E50E941B2E882351F00E94D9
:10439000962D6093490970934A0980934B09909335
:1043A0004C0984E50E941B2E882309F424C80E942E
:1043B000962D60934D0970934E0980934F09909309
:1043C000500919C840914509509146096091470923
:1043D0007091480986EE94E00E941E2F4091490991
:1043E00050914A0960914B0970914C0983EE94E019
:1043F0000E941E2F40914D0950914E0960914F0926
:104400007091500980EE94E00E941E2F8AE00E9475
:1044100080300C94FB1982E40E94CD2D8823C1F0DA
:104420008091BD029091BE02009739F04AE050E0C1
:1044300060E070E00E94E36903C060E070E0CB01DF
:104440006093210970932209809323099093240992
:1044500083E50E94CD2D882351F00E94962D609314
:10446000510970935209809353099093540984E53C
:104470000E94CD2D882351F00E94962D60935509FE
:104480007093560980935709909358098AE40E94C3
:10449000CD2D882311F40C94FB190E94962D6B01ED
:1044A0007C012AE037ED43E25CE30E94477287FD1E
:1044B00014C02AE939E949E95EE3C701B6010E945F
:1044C0006C6B181654F0C0925D04D0925E04E092BA
:1044D0005F04F09260040C94FB190E94B32F81ECEE
:1044E00094E00E9487300C94FB1920E632E081FFB3
:1044F00003C042E652E002C045E652E080FF03C03E
:1045000084E692E002C085E692E03F932F935F93AA
:104510004F939F938F938DE792E09F938F933F925A
:104520002F920E943D6B0E949630C1010E94C731BC
:104530000FB6F894DEBF0FBECDBF0C94FB1925E675
:1045400032E0D5CFB7FAB094B7F8B094D7018D92D6
:104550009D92AD92BC9213970C9493190E94B32F25
:104560008FE892E00E9487300C94FB190C5F1F4F7C
:10457000BFEFCB1ADB0AECE8F7E0E017F10711F028
:104580000C9463199CE6E92E92E0F92E10E0F101FB
:1045900081919191A191B1911F01F7018193919323
:1045A000A193B1937F01812F0E94A1281F5F133037
:1045B00071F70E947C2A0C94FB19692D7C2D8B2DA0
:1045C0009A2D0E946C6B87FF3BCC80E090E0A0E8C6
:1045D000B0E48E8B9F8BA88FB98F89839A83AB832E
:1045E000BC83E92CFC2C0B2D1A2D52CCFA8DEF2E0E
:1045F000FF0FFF08F70183E0EE0FFF1F8A95E1F739
:10460000E050FE4F668177816F507109072E000CD4
:10461000880B990B0E94736B9B01AC016EA17AA56C
:104620008EA59EA90E944772181634F480EF93E07D
:104630000E9487300C94FB198CED93E00E94873028
:104640000E944E3887E18E9DF0018F9DF00D112460
:10465000E957FB4F8FE7828724E130E0A8EEB3E013
:104660000E948A6FA5966CAF7DAF8EAF9FAFA59766
:104670009B01AC01240D351D461D571DE2962CAF44
:104680003DAF4EAF5FAFE29781E080930F023A8D6E
:104690003F3FC1F48BEA9AEAAAEABEE3E6968CAF02
:1046A0009DAFAEAFBFAFE6972DEC3CEC4CE45EE3C4
:1046B000EA962CAF3DAF4EAF5FAFEA97EB961FAED9
:1046C000EB9718C080E090E0A0E0BEE3E6968CAFE8
:1046D0009DAFAEAFBFAFE6972AE939E949E15FE3A5
:1046E000EA962CAF3DAF4EAF5FAFEA973A8DEB96AF
:1046F0003FAFEB9767964CAE5DAE6EAE7FAE679701
:10470000A9964CAE5DAE6EAE7FAEA997EFE78E2E4A
:10471000912CA12CB12C1AAA1BAA1CAA1DAA229664
:104720001CAE1DAE1EAE1FAE2297C12CD12C760141
:1047300023961FAE239740E427964FAF27975CE15F
:104740002B965FAF2B9786E42F968FAF2F976096AF
:104750001FAE609761961FAE619762961FAE62971B
:1047600063961FAE6397AA961FAEAA97AE96CCAE7D
:10477000DDAEEEAEFFAEAE972FE730E040E050E0AA
:104780002AA33BA34CA35DA3A0961CAE1DAE1EAEF8
:104790001FAEA09731E06C963FAF6C971BAE1AAE80
:1047A00010E0312C212C00E04A8D57E14502C00178
:1047B000112489579B4FDC011A96ED96BFAFAEAF1F
:1047C000ED97FC0134966B96FFAFEEAF6B97689652
:1047D0002FAD6897022E000C330B69963FAF2EAFBA
:1047E00069970E94E8616E8F7F8F88A399A380915B
:1047F0006702882309F4E4C00E94B0393A8D3F3F34
:1048000049F410918D0230908E0220908F02009119
:1048100090020DC06B96AEADBFAD6B971C9111961B
:104820003C90119712962C90129713960C916096CB
:104830002FAD609761963FAD619762964FAD6297DD
:1048400063965FAD6397612F732D822D902F0E9429
:104850004772181664F460961FAF609761963FAE7A
:10486000619762962FAE629763960FAF6397239618
:104870002FAD239727963FAD27972B964FAD2B97BC
:104880002F965FAD2F97612F732D822D902F0E9451
:104890006C6B87FF0CC023961FAF239727963FAE04
:1048A00027972B962FAE2B972F960FAF2F976C969F
:1048B000BFAD6C97212F332D422D502F6EA17AA5BD
:1048C0008EA59EA9BB2309F461C00E946C6B87FF73
:1048D00077C02E8D3F8D48A159A12419350946096D
:1048E0005709C258DF4F288339834A835B83CE57E9
:1048F000D040DA01C90188589341A109B109B7FD37
:104900005FC0D501C4012AA13BA14CA15DA1821BBE
:10491000930BA40BB50B3A8DB595A79597958795F5
:104920003F3F19F48093930205C0ED96EEADFFADC5
:10493000ED978083C258DF4F288139814A815B819E
:10494000CE57D040A0962CAF3DAF4EAF5FAFA097F3
:104950003EA160963FAF60974AA561964FAF6197C1
:104960005EA562965FAF62978EA963968FAF6397DD
:104970002E8D3F8D48A159A167962CAF3DAF4EAF0C
:104980005FAF67976C961FAE6C971AC00E94477214
:104990001816B4F48E8D9F8DA8A1B9A167962CAD81
:1049A0003DAD4EAD5FAD6797821B930BA40BB50B6E
:1049B000AC01BD01485853416109710977FF98C1A5
:1049C00020E030E040EF51E46EA17AA58EA59EA9CB
:1049D0000E94E76F212F332D422D502F0E946C6BC8
:1049E00087FF03C080EF93E0C2C08E8D9F8DA8A18A
:1049F000B9A1A9962CAD3DAD4EAD5FADA997821B77
:104A0000930BA40BB50BB7FD94C0EB968FADEB9752
:104A10000E9456378AE00E9480308E8D9F8DA8A11B
:104A2000B9A18053984FAF4FBF4FA9968CAF9DAFA0
:104A3000AEAFBFAFA997AA969FADAA9791115EC0DE
:104A4000AE962CAD3DAD4EAD5FADAE97612F732DE3
:104A5000822D902F0E9447721816DCF520E030E07E
:104A600040E050E4612F732D822D902F0E94E76F5C
:104A7000AE966CAF7DAF8EAF9FAFAE97A5962CADC7
:104A80003DAD4EAD5FADA5978E8D9F8DA8A1B9A10F
:104A9000280F391F4A1F5B1FE2962CAF3DAF4EAF68
:104AA0005FAFE29720E030E040EC50E46EA17AA5E1
:104AB0008EA59EA90E94E66F212F332D422D502FE7
:104AC0000E946C6B881F8827881FAA968FAFAA97B1
:104AD00030C08E8D9F8DA8A1B9A1E2962CAD3DADC1
:104AE0004EAD5FADE297821B930BA40BB50BB7FDE8
:104AF00020C045E653E064E773E018C020E030E0F2
:104B000040EF51E46EA17AA58EA59EA90E94E66FA2
:104B10009B01AC01612F732D822D902F0E946C6B35
:104B200087FF07C045E453E065E573E08A8D0E9486
:104B3000CD3967968CAD9DADAEADBFAD67974816CC
:104B400059066A067B0610F4D301C2012E8D3F8DF3
:104B500048A159A1281B390B4A0B5B0BDA01C9018B
:104B600081389F44A241B10550F087E293E00E9452
:104B7000873010920F020E944E380C94FB196996F0
:104B80004EAD5FAD69978AAD9BAD481759070CF0E4
:104B900028CE03970CF425CE8AEC92E00E94873051
:104BA0009A8D9F3F19F40FE312E002C002E913E06F
:104BB0008DEA92E00E948730C8010E948730B701D9
:104BC000A60186EC92E00E941E2F8AE00E948030AF
:104BD0008DEA92E00E948730C8010E9487302296B9
:104BE0004CAD5DAD6EAD7FAD229782EC92E00E9440
:104BF0001E2F8AE00E9480308DEA92E00E9487306A
:104C0000C8010E9487304AA95BA96CA97DA98EEBD7
:104C100092E00E941E2F8AE00E948030EE96AFAD97
:104C2000EE97AA2311F40C94FB19BA8DBF3F81F5BE
:104C3000C0929402D0929502E0929602F09297026E
:104C40002CEA35EC47E25EE322966CAD7DAD8EAD8D
:104C50009FAD22970E94D26B609398027093990245
:104C600080939A0290939B022CEA35EC47E25EE334
:104C70006AA97BA98CA99DA90E94E17060939C02FE
:104C800070939D0280939E0290939F020C94FB1957
:104C9000C0929204D0929304E0929404F09295040E
:104CA0002CEA35EC47E25EE322966CAD7DAD8EAD2D
:104CB0009FAD22970E94D26B6093960470939704E5
:104CC00080939804909399042CEA35EC47E25EE3D4
:104CD0006AA97BA98CA99DA90E94E17060939A049E
:104CE00070939B0480939C0490939D040C94FB19F7
:104CF0004AAD5BAD452B09F47EC1A0964CAC5DACD2
:104D00006EAC7FACA097480E591E6A1E7B1EA09603
:104D10002CAD3DAD4EAD5FADA097281B390B4A0BB6
:104D20005B0B6AA17BA18CA19DA10E944D6FA30189
:104D300092010E94AD6F820E931EA41EB51E54E117
:104D400085169104A104B104FCF08CEE8816910440
:104D5000A104B1043CF490E889169104A104B104C3
:104D600034F420C06BEE862E912CA12CB12C2EEFAA
:104D700030E040E050E0281939094A095B092AA3CC
:104D80003BA34CA35DA312C054E1852E912CA12C12
:104D9000B12C84E190E0A0E0B0E08AA39BA3ACA397
:104DA000BDA304C08AA29BA2ACA2BDA284ED93E0E5
:104DB0000E948730C501B4010E9430318FEC93E02E
:104DC0000E9487306AA17BA18CA19DA10E943031F5
:104DD00023964FAD239727965FAD27972B966FAD00
:104DE0002B972F967FAD2F9788EC93E00E941E2F74
:104DF00060964FAD609761965FAD619762966FADBB
:104E0000629763967FAD639781EC93E00E941E2FBB
:104E1000AAADBBAD13970CF4EEC06AA17BA18CA127
:104E20009DA10E94736B20E030E040E850E40E94B6
:104E3000D26B6B017C0123962FAD239727963FAD54
:104E400027972B964FAD2B972F965FAD2F97609698
:104E50006FAD609761967FAD619762968FAD6297F7
:104E600063969FAD63970E94E66F2BED3FE049E4A8
:104E700050E40E94D26B20E030E040E05FE30E940B
:104E8000D26B9B01AC01C701B6010E94E1706B01BE
:104E90007C01C301B2010E94736B2FE632E143E84B
:104EA0005AE30E94D26B2B013C01B701A6018BEBA8
:104EB00093E00E941E2FB301A20185EB93E00E94B4
:104EC0001E2FBA8DBF3F09F048C02DEC3CEC4CE4DE
:104ED0005EE3C701B6010E94D26B6B017C019B01AE
:104EE000AC010E94E76FA30192010E94E17022963B
:104EF0006CAF7DAF8EAF9FAF2297A7019601C30124
:104F0000B2010E94D26B20E030E040E450E40E9405
:104F1000E1706AAB7BAB8CAB9DAB85EA93E00E9402
:104F20008730B701A6018FE993E00E941E2F2296D9
:104F30004CAD5DAD6EAD7FAD229789E993E00E94E7
:104F40001E2F4AA95BA96CA97DA983E993E00E9461
:104F50001E2F8AE00E94803051C0EA962CAD3DADF4
:104F60004EAD5FADEA97C701B6010E94D26B6B01EF
:104F70007C019B01AC01C301B2010E94D26BE69699
:104F80002CAD3DAD4EAD5FADE6970E94D26B6AABE6
:104F90007BAB8CAB9DABA7019601C701B6010E940C
:104FA000E76FA30192010E94E17022966CAF7DAF82
:104FB0008EAF9FAF229783E893E00E948730B701BE
:104FC000A6018FE993E00E941E2F22964CAD5DADA5
:104FD0006EAD7FAD229789E993E00E941E2F4AA90A
:104FE0005BA96CA97DA983E993E00E941E2F8AE04A
:104FF0000E94803012C0EA8DEF3F79F48AA19BA114
:10500000ACA1BDA1880D991DAA1DBB1DB595A79585
:10501000979587958093930211C08AA19BA1ACA11B
:10502000BDA1880D991DAA1DBB1DB595A795979586
:105030008795ED96EEADFFADED9780832AAD3BAD44
:105040002F5F3F4F3BAF2AAF3EA123963FAF239741
:105050004AA527964FAF27975EA52B965FAF2B9754
:105060008EA92F968FAF2F974E8C5F8C68A079A05A
:1050700091E06C969FAF6C97A3CC20E030E04CE0C1
:1050800053E46EA17AA58EA59EA90E9447721816B8
:105090000CF4CCCA8CED93E00E9487300E944E380D
:1050A0008FE7809393022CE330E0D8CACF57DF4FCD
:1050B0000FB6F894DEBF0FBECDBFDF91CF911F9129
:1050C0000F91FF90EF90DF90CF90BF90AF909F90A7
:1050D0008F907F906F905F904F903F902F900895AA
:1050E000282F8091D402233021F485FD0EC084FD49
:1050F0000EC090E0A0E0B0E004C0B695A7959795EB
:1051000087952A95D2F78170089581E0089580E00F
:105110000895CF93C82FCB01009711F00E948730DC
:105120008BE09AE00E948730C11103C081ED97E0C7
:1051300002C086ED97E00E9487308AE0CF910C9400
:105140008030CF93DF9324E0829FC0011124EC01D3
:10515000C757D44FFC01E459FD4FDC01A255BD4FA8
:105160002D913D914D915C916081718182819381FE
:105170000E94E76F688379838A839B83DF91CF9155
:1051800008958F929F92AF92BF92CF92DF92EF924B
:10519000FF920F931F93CF93DF93CDB7DEB768973E
:1051A0000FB6F894DEBF0FBECDBFE82E4A015B01FB
:1051B000690120E030E0A901B801C6010E946C6BD2
:1051C000F12C81110DC0F701EE0FFF1FEE0FFF1F35
:1051D000EA56F84F85919591A591B4918C016D0196
:1051E000C801D6018D8B9E8BAF8BB88FF701E3582A
:1051F000F84FE491DD24D3941E160CF4D12CCC246A
:10520000C39420E030E0A901C501B4010E944772B7
:1052100018160CF0C12C80E00E94646069837A83C8
:105220008B839C8381E00E9464606D837E838F8387
:10523000988782E00E94646069877A878B879C8761
:1052400083E00E9464606D877E878F87988BEE0C69
:10525000FF1CEE0CFF1C81E090E08C0F9D1FE80E00
:10526000F91EF70110821182128213829E01235FC0
:105270003F4FAE01475F5F4FBE016B5F7F4FCE0177
:1052800001960E94515DF70180829182A282B382D1
:10529000198A1A8A1B8A1C8A80910E0990910F091B
:1052A000892B91F4CE0141967C018E010B5E1F4F3C
:1052B0009E01235F3F4FAE01475F5F4FBE016B5FB3
:1052C0007F4F40970E947C400E943E5ADC1471F050
:1052D0008091390B882319F01092390B07C040E0F8
:1052E00060E070E08CE098E00E949A3068960FB61B
:1052F000F894DEBF0FBECDBFDF91CF911F910F910C
:10530000FF90EF90DF90CF90BF90AF909F908F90E5
:105310000895CF92DF92EF92FF921F93CF93DF9386
:1053200020911002222309F48DC0EC011091BC02DF
:1053300010FF2CC0C0901202D0901302E090140213
:10534000F0901502288139814A815B81C701B6013D
:105350000E944772181624F4C882D982EA82FB821E
:10536000C0901E02D0901F02E0902002F090210217
:10537000288139814A815B81C701B6010E946C6B2B
:1053800087FF04C0C882D982EA82FB8211FF2CC049
:10539000C0901602D0901702E0901802F090190207
:1053A0002C813D814E815F81C701B6010E94477209
:1053B000181624F4CC82DD82EE82FF82C090220295
:1053C000D0902302E0902402F09025022C813D81B0
:1053D0004E815F81C701B6010E946C6B87FF04C0DC
:1053E000CC82DD82EE82FF8212FF2CC0C0901A02B6
:1053F000D0901B02E0901C02F0901D022885398598
:105400004A855B85C701B6010E944772181624F4CD
:10541000C886D986EA86FB86C0902602D0902702ED
:10542000E0902802F0902902288539854A855B851D
:10543000C701B6010E946C6B87FF04C0C886D9867D
:10544000EA86FB86DF91CF911F91FF90EF90DF906E
:10545000CF9008950F931F938C0128E532E044E527
:1054600052E060E572E08CE492E00E9432631F91AA
:105470000F910895CF93DF93CDB7DEB760970FB646
:10548000F894DEBF0FBECDBFECE4F2E080819181E5
:10549000A281B38189839A83AB83BC838481958104
:1054A000A681B7818D839E83AF83B88780859185E0
:1054B000A285B38589879A87AB87BC8784859585C4
:1054C000A685B7858D879E87AF87B88B9E01235FA2
:1054D0003F4FAE01475F5F4FBE016B5F7F4FCE0115
:1054E00001960E94515D60960FB6F894DEBF0FBE24
:1054F000CDBFDF91CF910895CF93DF93CDB7DEB7C6
:105500002C970FB6F894DEBF0FBECDBF0E94B862D5
:105510000E94CE5C9CE0E3E1F4E0DE011196019094
:105520000D929A95E1F781110E94DB5CCE01019604
:105530000E9414402C960FB6F894DEBF0FBECDBF6C
:10554000DF91CF91089580918503649902C08061B5
:1055500001C08F7E80938503909103018091850324
:1055600091FD02C0826001C08D7F80938503809190
:1055700085034B9902C0846001C08B7F80938503B3
:1055800080916A0980FF10C08091B70980FD0CC02E
:105590008091850384FF08C08091390B80618093DE
:1055A000390B80E00E94484080916A09869580FF0F
:1055B00011C08091B709869580FF0CC0809185034A
:1055C00081FF08C08091390B82608093390B81E0A4
:1055D0000E94484080916A098695869580FF12C096
:1055E0008091B7098695869580FF0CC080918503D0
:1055F00082FF08C08091390B84608093390B82E070
:105600000C9448400895CF9382EF97E00E94873032
:105610008CB1C1E0829581706CEE77E08C270E949E
:105620008928809103018695817066EE77E08C274A
:105630000E94892889B183FB882780F960EE77E092
:105640008C27CF910C9489280F931F938091A902E6
:10565000813019F40E94E86108C06091A502709140
:10566000A6028091A7029091A80200918103109157
:1056700082032091830330918403601B710B820BA2
:10568000930B28EE33E040E050E00E945D6F809184
:105690007D0390917E03A0917F03B0918003BC01B4
:1056A000CD01620F731F841F951F1F910F910895E5
:1056B0001092A90210928103109282031092830328
:1056C000109284031092A5021092A6021092A702D3
:1056D0001092A80210927D0310927E0310927F0315
:1056E0001092800308958091A9028130F1F08230F8
:1056F00059F40E94242B60937D0370937E03809362
:105700007F039093800302C00E94582B81E0809316
:10571000A9020E94E86160938103709382038093E1
:1057200083039093840381E0089580E0089580913D
:10573000A9028150823010F080E008951092A902F1
:105740000E94E8616093A5027093A6028093A7026D
:105750009093A80281E008958091DF028093E00297
:1057600088EC97E00E9487308091A0029091A1027E
:10577000A091A202B091A302BC01CD016F5F7F4F47
:105780008F4F9F4F0E9430310E94C131E0916602DD
:10579000F0E0E053F44F8081882339F089E692E00D
:1057A0000E9487308AE00C94803008957F928F9217
:1057B0009F92AF92BF92CF92DF92EF92FF920F93A0
:1057C0001F93CF93DF9310927E0210927D022FE3FE
:1057D0002093D7021092D6021092D5021092AA02FC
:1057E0001092AB021092AC021092AD029C01F90132
:1057F00090812F5F3F4F9032D1F39E3489F48181A5
:1058000090ED980F9A3008F419C18D3209F416C141
:105810008B3231F413C1FD01119680818032D9F3AE
:10582000F093880BE093870B8F010F5F1F4F708001
:105830006AE270E0C8010E94F472009731F0FC0146
:10584000319780818032E1F311824DE4842E781407
:1058500041F034E5932E791421F027E4A22E7A103A
:1058600009C1F80180810F5F1F4F8032D1F380534F
:105870008A3008F0FFC07092D7021092D6021092C0
:10588000D5022AE031968091D5029091D602289FC8
:10589000A001299F500D1124DF0111978C91480F11
:1058A000511D87FD5A95405351095093D60240939C
:1058B000D502808180538A3028F3DF0131968C91A4
:1058C0008032D9F39DE4B92E7B101AC04E315105B8
:1058D00091F03CF44731510571F04C31510581F4A0
:1058E0000AC04537510564F04737510524F0403A66
:1058F00083E0580729F4B0937E02A0937D02BAC0DA
:1059000010927E0210927D026091870BC12CD12CE7
:105910007601C394FD0131962C91222309F4AAC08B
:105920002132A9F4CDE47C1212C04032510579F441
:10593000F0937E02E0937D0263E270E0CF010E946B
:10594000F472009709F496C0FC01108293C02154B0
:105950002A3108F04BC0DF01FD01808111968032B1
:10596000D9F390ED980F9A30B0F08E3211F4818116
:105970000EC08D3219F08B3209F06CC0818190ED30
:10598000980F9A3040F08E3209F064C082818053C3
:105990008A3008F05FC0CF01A22FB0E04601570166
:1059A00004C0880C991CAA1CBB1C2A95D2F795012F
:1059B00084018090AA029090AB02A090AC02B090BB
:1059C000AD02082919292A293B290093AA0210931C
:1059D000AB022093AC023093AD02009711F0861B0E
:1059E00001C080E0AD59BC4F8C930AC080917D020C
:1059F00090917E02892B21F4B0937E02A0937D02C8
:105A0000808181548A3138F4DF0184CF90ED980F82
:105A10009A3040F4F901DF01EF0189919E01811173
:105A2000F5CF78CF93ED980F9230A0F38B3291F3AE
:105A3000DF0131968C918032D9F36CCFDF01129661
:105A40009D012F5F3F4F8C9180538A3008F0E3CE49
:105A5000D901F6CF80917D0290917E02009739F4B2
:105A6000DF011197B0937E02A0937D0295CF80E075
:105A700090E092CFDF91CF911F910F91FF90EF9027
:105A8000DF90CF90BF90AF909F908F907F900895C0
:105A90000F931F93CF938C01C62F83EC97E00E9446
:105AA0008730C8010E9487308AE30E9480306C2FC3
:105AB00070E080E090E00E943031CF911F910F9113
:105AC0000C94C1318091BD029091BE02009731F0DB
:105AD0004AE050E060E070E00C94B56860E070E08F
